:100000000C9434000C943E000C943E000C943E0082
:100010000C943E000C943E000C943E000C943E0068
:100020000C943E000C943E000C943E000C943E0058
:100030000C943E000C943E000C943E000C943E0048
:100040000C943E000C943E000C943E000C943E0038
:100050000C943E000C943E000C943E000C943E0028
:100060000C943E000C943E0011241FBECFEFD8E04C
:10007000DEBFCDBF0E9448000C9457000C940000D6
:1000800085B1806285B9089585B18F7D85B9089560
:100090008FE784B917B81AB885B1806885B91F99F8
:1000A0000E9440001F9BFBCF0E944400F8CFF894B1
:0200B000FFCF80
:00000001FF
