S01000005072652D6C6162342E737265635D
S11300000C9434000C943E000C943E000C943E007E
S11300100C943E000C943E000C943E000C943E0064
S11300200C943E000C943E000C943E000C943E0054
S11300300C943E000C943E000C943E000C943E0044
S11300400C943E000C943E000C943E000C943E0034
S11300500C943E000C943E000C943E000C943E0024
S11300600C943E000C943E0011241FBECFEFD8E048
S1130070DEBFCDBF0E9448000C9463000C940000C6
S113008085B1806285B9089585B18F7D85B908955C
S11300908FEF84B917B81AB80E9440002FE38DE09F
S11300A093E0215080409040E1F700C000000E949E
S11300B044002FE78AE196E0215080409040E1F728
S10D00C000C00000E9CFF894FFCF60
S9030000FC
