S00D00004C616220322E73726563B6
S11300000C9434000C9446000C9446000C94460066
S11300100C9446000C9446000C9446000C94460044
S11300200C9446000C9446000C9446000C94460034
S11300300C9446000C9446000C9446000C94460024
S11300400C9446000C9446000C9446000C94460014
S11300500C9446000C9446000C9446000C94460004
S11300600C9446000C94460011241FBECFEFD8E038
S1130070DEBFCDBF21E0A0E0B1E001C01D92AC37EE
S1130080B207E1F70E948B000C9423010C9400004A
S11300901092C00088E08093C10086E08093C20083
S11300A08CE090E09093C5008093C4000895E0EC48
S11300B0F0E0908195FFFDCF8093C6000895CF9323
S11300C0DF93E2E0F0E0C0E0D0E011C0CF01B9017D
S11300D00E940001892B31F02F5F3F4F2E173F07FD
S11300E0A9F70DC03196ED3281E0F80789F0E330CD
S11300F0F10528F0E0FFF6CF22E030E0EDCFDE019D
S1130100AA0FBB1FA050BF4FED93FC932196EACFDB
S1130110DF91CF910895BF92CF92DF92EF92FF9239
S11301200F931F93CF93DF930E9448000E945F00B8
S113013000E011E00F2EFCE7EF2EF1E0FF2EF02D92
S11301400F2EF4E6BF2EF02DF801C191D1918F014D
S11301509E013695279536952795ABE7B4E10E9425
S113016014016C01D694C79480E38C0D0E9457004F
S1130170BC9CC001BD9C900D11249E01281B390B11
S1130180ADECBCEC0E9414019695879596958795E5
S113019096958795805D0E9457009E01ADECBCEC5E
S11301A00E941401969587959695879596958795BF
S11301B09C01220F331F880F991F880F991F880FE6
S11301C0991F820F931F9E01281B390BC901805D63
S11301D00E9457008CE20E94570080E20E94570060
S11301E00E151F0509F0B0CF80E090E0DF91CF91AC
S11301F01F910F91FF90EF90DF90CF90BF900895E3
S1130200AA1BBB1B51E107C0AA1FBB1FA617B70738
S113021010F0A61BB70B881F991F5A95A9F7809554
S11302209095BC01CD010895A29FB001B39FC00178
S1130230A39F700D811D1124911DB29F700D811D0E
S10D02401124911D0895F894FFCFD6
S9030000FC
