S00D00004C616220322E73726563B6
S11300000C9434000C943E000C943E000C943E007E
S11300100C943E000C943E000C943E000C943E0064
S11300200C943E000C943E000C943E000C943E0054
S11300300C943E000C943E000C943E000C943E0044
S11300400C943E000C943E000C943E000C943E0034
S11300500C943E000C943E000C943E000C943E0024
S11300600C943E000C943E0011241FBECFEFD8E048
S1130070DEBFCDBF0E9457000C9466000C940000B4
S11300801092C00088E08093C10086E08093C20093
S11300908CE090E09093C5008093C4000895E0EC58
S11300A0F0E0908195FFFDCF8093C60008950E94F3
S11300B040002FE986E891E0215080409040E1F72C
S11300C000C0000083E30E944F00F3CFF894FFCFF9
S9030000FC
