S00D00004C616220322E73726563B6
S11300000C9434000C943E000C943E000C943E007E
S11300100C943E000C943E000C943E000C943E0064
S11300200C943E000C943E000C943E000C943E0054
S11300300C943E000C943E000C943E000C943E0044
S11300400C943E000C943E000C943E000C943E0034
S11300500C943E000C943E000C943E000C943E0024
S11300600C943E000C943E0011241FBECFEFD8E048
S1130070DEBFCDBF0E9440000C94A6000C9400008B
S1130080CF93DF93CDB7DEB7C358D1090FB6F89439
S1130090DEBF0FBECDBF1A82198282E090E09C833E
S11300A08B833AC081E08D8382E090E09F838E83CE
S11300B010C08B819C812E813F81B9010E949200E6
S11300C0892B11F41D820CC08E819F8101969F8320
S11300D08E832E813F818B819C812817390748F3B9
S11300E08D818823A1F089819A81880F991F9E01AF
S11300F02F5F3F4F820F931F07962B813C81FC019A
S11301003183208389819A8101969A8389838B81A3
S11301109C8101969C838B838B819C818D32914041
S113012008F2FFCFAA1BBB1B51E107C0AA1FBB1FCC
S1130130A617B70710F0A61BB70B881F991F5A956F
S1130140A9F780959095BC01CD010895F894FFCF4F
S9030000FC
