S01000005072655F4C6162362E7372656349
S11300000C9434000C9451000C9451000C94510045
S11300100C9451000C9451000C9451000C94510018
S11300200C9451000C9451000C9451000C94510008
S11300300C9451000C9451000C9451000C945100F8
S11300400C9451000C9451000C9451000C945100E8
S11300500C9451000C9451000C9451000C945100D8
S11300600C9451000C94510011241FBECFEFD8E022
S1130070DEBFCDBF11E0A0E0B1E0ECE4F1E002C0EE
S113008005900D92AA30B107D9F721E0AAE0B1E0BA
S113009001C01D92AC30B207E1F70E945F000C94DE
S11300A0A4000C9400008FE784B98FEF87B91AB8C5
S11300B085B1816085B985B18D7F85B908950E9428
S11300C0530010920B0180910B018A30D0F781E02C
S11300D080930A0180910A018B3078F487EA91E6D3
S11300E00197F1F700C000001F9B10920B01809153
S11300F00A018F5F80930A01EDCFE0910B01F0E0DC
S1130100E050FF4F80818F7388B988B1806C88B9C3
S1130110E0910B01F0E0E050FF4F808186FF04C0C6
S113012085B1806185B903C085B18F7E85B9809121
S11301300B01893019F48FEF80930B0180910B012F
S10F01408F5F80930B01BFCFF894FFCFBA
S10D014C3F065B4F666D7D077F6F71
S9030000FC
