S01000005072655F4C6162362E7372656349
S11300000C9434000C9415010C9451000C94510080
S11300100C9451000C9451000C9451000C94510018
S11300200C9451000C9451000C9451000C94510008
S11300300C9451000C9451000C94E8000C94510061
S11300400C9451000C9451000C9451000C945100E8
S11300500C9451000C9451000C9451000C945100D8
S11300600C9451000C94510011241FBECFEFD8E022
S1130070DEBFCDBF11E0A0E0B1E0E6E9F2E002C0EE
S113008005900D92AA30B107D9F721E0AAE0B1E0BA
S113009001C01D92A031B207E1F70E945F000C94E9
S11300A049010C9400008FE784B98FEF87B91AB81F
S11300B085B1816085B985B18D7F85B908950E9428
S11300C053000E94B3000E94C10010920C013CC076
S11300D081E080930B010EC087EA91E60197F1F766
S11300E000C000001F9B10920C0180910B018F5FD8
S11300F080930B0180910B018B3070F3E0910C0124
S1130100F0E0E050FF4F80818F7388B988B1806C34
S113011088B9E0910C01F0E0E050FF4F808186FF48
S113012004C085B1806185B903C085B18F7E85B96E
S113013080910C01893019F48FEF80930C01809128
S11301400C018F5F80930C0180910C018A3008F4BC
S1130150BFCFBBCF95B181E0892785B995B182E046
S1130160892785B9089584B5826084BD85B5846086
S113017085BD8DE487BDEEE6F0E0808182608083FA
S113018008958DB381608DBBE9E6F0E080818360E2
S11301908083789408958DB38E7F8DBBE9E6F0E07B
S11301A080818E7F80838DB381608DBB81E080935D
S11301B00E0108958DB38E7F8DBBE9E6F0E080815A
S11301C0816080838DB381608DBB10920E01089590
S11301D01F920F920FB60F9211242F933F934F93B8
S11301E05F936F937F938F939F93AF93BF93EF939B
S11301F0FF9380910A018F5F80930A018A3021F472
S11302000E94AA0010920A01FF91EF91BF91AF9151
S11302109F918F917F916F915F914F913F912F911A
S11302200F900FBE0F901F9018951F920F920FB64C
S11302300F9211242F933F934F935F936F937F9368
S11302408F939F93AF93BF93EF93FF9380910E018E
S1130250811106C00E94CB0016BC10920F0108C089
S11302600E94DA0086B580930D0181E080930F012E
S1130270FF91EF91BF91AF919F918F917F916F917A
S11302805F914F913F912F910F900FBE0F901F9050
S10902901895F894FFCF5D
S10D02963F065B4F666D7D077F6F26
S9030000FC
