S01000005072655F4C6162362E7372656349
S11300000C9434000C944F010C9451000C94510046
S11300100C9451000C9451000C9451000C94510018
S11300200C9451000C9451000C9451000C94510008
S11300300C9451000C9451000C941C010C9451002C
S11300400C9451000C9451000C9451000C945100E8
S11300500C9451000C9451000C9451000C945100D8
S11300600C9451000C94510011241FBECFEFD8E022
S1130070DEBFCDBF11E0A0E0B1E0EAE0F3E002C0F2
S113008005900D92AA30B107D9F721E0AAE0B1E0BA
S113009001C01D92A331B207E1F70E945F000C94E6
S11300A083010C9400008FE784B98FEF87B91AB8E5
S11300B085B1816085B985B18D7F85B908950E9428
S11300C053000E94E7000E94F50010920E0134C014
S11300D081E080930C010EC087EA91E60197F1F765
S11300E000C000001F9B10920E0180910C018F5FD5
S11300F080930C0180910C018B3070F390910E0170
S11301008DEC989F812D11248695869586958093F4
S11301100D01880F282F220F220F820F292F281B51
S113012020930B01933619F48FEF80930E01809185
S11301300E018F5F80930E0180910E01843640F290
S1130140C4CF80910F01811121C085B18E7F85B903
S113015085B1826085B9E0910D01F0E0E050FF4F78
S113016080818F7388B988B1806C88B9E0910D0162
S1130170F0E0E050FF4F808186FF04C085B18061CC
S113018085B9089585B18F7E85B9089585B18D7F30
S113019085B985B1816085B9E0910B01F0E0E0504B
S11301A0FF4F80818F7388B988B1806C88B9E091E2
S11301B00B01F0E0E050FF4F808186FF04C085B161
S11301C0806185B9089585B18F7E85B9089584B518
S11301D0826084BD85B5846085BD8DE487BDEEE60F
S11301E0F0E080818260808308958DB381608DBB4F
S11301F0E9E6F0E0808183608083789408958DB38C
S11302008E7F8DBBE9E6F0E080818E7F80838DB3A5
S113021081608DBB81E08093110108958DB38E7F41
S11302208DBBE9E6F0E08081816080838DB38160DD
S11302308DBB1092110108951F920F920FB60F9269
S113024011242F933F934F935F936F937F938F93D7
S11302509F93AF93BF93EF93FF9380910A018F5FB6
S113026080930A018A3051F490910F0181E089272B
S113027080930F010E94A10010920A01FF91EF9157
S1130280BF91AF919F918F917F916F915F914F91AA
S11302903F912F910F900FBE0F901F9018951F92B2
S11302A00F920FB60F9211242F933F934F935F93A6
S11302B06F937F938F939F93AF93BF93EF93FF932A
S11302C080911101811106C00E94FF0016BC10929A
S11302D0120108C00E940E0186B58093100181E0CE
S11302E080931201FF91EF91BF91AF919F918F91F4
S11302F07F916F915F914F913F912F910F900FBE1E
S10D03000F901F901895F894FFCF9A
S10D030A3F065B4F666D7D077F6FB1
S9030000FC
