:100000000C9434000C9451000C9451000C94A500F5
:100010000C9451000C9451000C9451000C9451001C
:100020000C9451000C9451000C9451000C9451000C
:100030000C9451000C9451000C9451000C945100FC
:100040000C9451000C9451000C9451000C945100EC
:100050000C9451000C9451000C9451000C945100DC
:100060000C9451000C94510011241FBECFEFD8E026
:10007000DEBFCDBF11E0A0E0B1E0E6E6F1E002C0F6
:1000800005900D92AA30B107D9F721E0AAE0B1E0BE
:1000900001C01D92AB30B207E1F70E946D000C94D5
:1000A000B1000C9400008FE784B98FEF87B91AB8BC
:1000B00085B1816085B985B18D7F85B9EBE6F0E0CA
:1000C000808180688083E8E6F0E0808181608083C1
:1000D0008FB780688FBF789408950E945300109264
:1000E0000A0180910A018A30D0F72FE38DE093E076
:1000F000215080409040E1F700C00000E0910A01EB
:10010000F0E0E050FF4F80818F7388B988B1806C38
:1001100088B9E0910A01F0E0E050FF4F808186FF4E
:1001200004C085B1806185B903C085B18F7E85B972
:1001300080910A01893019F48FEF80930A01809130
:100140000A018F5F80930A01CCCF1F920F920FB6E6
:100150000F92112410920A010F900FBE0F901F9062
:060160001895F894FFCF92
:0A0166003F065B4F666D7D077F6F5B
:00000001FF
