:100000000C9434000C9446000C9446000C9446006A
:100010000C9446000C9446000C9446000C94460048
:100020000C9446000C9446000C9446000C94460038
:100030000C9446000C9446000C9466000C94460008
:100040000C9446000C9446000C9446000C94460018
:100050000C9446000C9446000C9446000C94460008
:100060000C9446000C94460011241FBECFEFD8E03C
:10007000DEBFCDBF21E0A0E0B1E001C01D92A03005
:10008000B207E1F70E9452000C948A000C94000021
:1000900095B180E2892785B908958FEF84B917B8A3
:1000A0001AB808950E944D000E9458007894FFCF1E
:1000B00084B5826084BD85B5846085BD8DE487BDCF
:1000C000EEE6F0E080818260808308951F920F92B7
:1000D0000FB60F9211242F933F934F935F936F931B
:1000E0007F938F939F93AF93BF93EF93FF930E9460
:1000F0004800FF91EF91BF91AF919F918F917F91B8
:100100006F915F914F913F912F910F900FBE0F9084
:080110001F901895F894FFCF31
:00000001FF
