S00C00004C6162352E73726563D4
S11300000C9434000C9446000C9446000C94460066
S11300100C9446000C9446000C9446000C94460044
S11300200C9446000C9446000C9446000C94460034
S11300300C9446000C9446000C9464000C94460006
S11300400C9446000C9446000C9446000C94460014
S11300500C9446000C9446000C9446000C94460004
S11300600C9446000C94460011241FBECFEFD8E038
S1130070DEBFCDBF21E0A0E0B1E001C01D92A03001
S1130080B207E1F70E9452000C9491000C94000016
S113009095B180E2892785B908958FEF84B917B89F
S11300A01AB808950E944D000E945D000E948800C5
S11300B08130E1F70E944800F9CF82E084BD84E0FA
S11300C085BD8DE487BD08951F920F920FB60F92E0
S11300D011242F933F934F935F936F937F938F9349
S11300E09F93AF93BF93EF93FF930E944800FF91B8
S11300F0EF91BF91AF919F918F917F916F915F919C
S11301004F913F912F910F900FBE0F901F90189514
S113011095B3892F827091FF03C082E085BB81E093
S10901200895F894FFCFDE
S9030000FC
