:100000000C9434000C943E000C943E000C943E0082
:100010000C943E000C943E000C943E000C943E0068
:100020000C943E000C943E000C943E000C943E0058
:100030000C943E000C943E000C943E000C943E0048
:100040000C943E000C943E000C943E000C943E0038
:100050000C943E000C943E000C943E000C943E0028
:100060000C943E000C943E0011241FBECFEFD8E04C
:10007000DEBFCDBF0E944D000C9463000C940000C5
:100080008FEF84B917B81AB8089585B1806285B921
:10009000089585B18F7D85B908950E9440000E9422
:1000A000450027EF84E291E0215080409040E1F745
:1000B00000C000000E94490081E19AE70197F1F732
:0A00C00000C00000ECCFF894FFCF61
:00000001FF
