S00C00004C6162352E73726563D4
S11300000C9434000C9446000C9446000C94460066
S11300100C9446000C9446000C9446000C94460044
S11300200C9446000C9446000C9446000C94460034
S11300300C9446000C9446000C9446000C94460024
S11300400C9446000C9446000C9446000C94460014
S11300500C9446000C9446000C9446000C94460004
S11300600C9446000C94460011241FBECFEFD8E038
S1130070DEBFCDBF21E0A0E0B1E001C01D92A230FF
S1130080B207E1F70E9461000C9484000C94000014
S113009085B1806285B9089585B18F7D85B908954C
S11300A0019729F40E94480080E090E008950E949E
S11300B04C0081E090E008958FEF84B917B81AB826
S11300C008950E945C000E9474000E947B008130AD
S11300D0E1F780910001909101010E9450009093FA
S11300E0010180930001F1CF82E084BD84E085BDED
S11300F08DE487BD089595B3892F827091FF03C065
S10F010082E085BB81E00895F894FFCFF5
S9030000FC
