:100000000C9434000C943E000C943E000C943E0082
:100010000C943E000C943E000C943E000C943E0068
:100020000C943E000C943E000C943E000C943E0058
:100030000C943E000C943E000C943E000C943E0048
:100040000C943E000C943E000C943E000C943E0038
:100050000C943E000C943E000C943E000C943E0028
:100060000C943E000C943E0011241FBECFEFD8E04C
:10007000DEBFCDBF0E94FD000C9481010C940000F6
:1000800082E480937C0084E880937A0010927B0065
:1000900010927E000895ECE7F0E09081907F9083CD
:1000A0009081892B8083EAE7F0E0808180648083FF
:1000B00080917A0084FFFCCF2091780080917900B4
:1000C00090E0982F8827822B08950E944B009C0176
:1000D000A8E8B3E10E947201DC01CB01072E7AE0AF
:1000E000B695A795979587957A95D1F7702D089530
:1000F000EF92FF920F931F93CF93DF93AC01EC012C
:10010000D695C795D695C795D695C7959E01A5EC6A
:10011000B0E20E947201FC01F295E295EF70EF27C8
:10012000FF70EF2728EE33E0E29FC001E39F900DC0
:10013000F29F900D11249A01281B390B36952795B3
:1001400036952795ABE7B4E10E9472017C01F694E5
:10015000E7949A0136952795369527950E94720166
:100160009C013695279564E6629FC001639F900DC0
:1001700011249A01281B390BADECBCEC0E947201D2
:100180008C011695079516950795169507959A0172
:100190000E947201EC01D695C795D695C795D69564
:1001A000C795CE01880F991FCC0FDD1FCC0FDD1F27
:1001B000CC0FDD1FC80FD91FCA018C1B9D0BEC0192
:1001C00080E38E0F0E946B0180E38E0D0E946B0115
:1001D00080E3800F0E946B018C2F805D0E946B0179
:1001E0008CE20E946B0180E20E946B01DF91CF9153
:1001F0001F910F91FF90EF9008950F931F93CF934E
:10020000DF93CDB7DEB7C055D1090FB6F894DEBF86
:100210000FBECDBF0E9440000E945C0100E010E0D4
:1002200021C080E090E00E94650089EF90E0019796
:10023000F1F700C0000081E090E00E946500F80145
:10024000EE0FFF1F21E030E02C0F3D1FE20FF31FE8
:100250009183808389EF90E00197F1F700C000005F
:100260000F5F1F4F08321105E4F28FEC97E00E94F8
:10027000780000E010E00FC0F801EE0FFF1F21E052
:1002800030E02C0F3D1FE20FF31F808191810E940F
:1002900078000F5F1F4F0832110574F380E090E083
:1002A000C05BDF4F0FB6F894DEBF0FBECDBFDF914E
:1002B000CF911F910F9108951092C00088E0809314
:1002C000C10086E08093C2008CE090E09093C5006E
:1002D0008093C40008959091C00095FFFCCF809357
:1002E000C6000895A29FB001B39FC001A39F700DE7
:1002F000811D1124911DB29F700D811D1124911D2E
:060300000895F894FFCF00
:00000001FF
